{
  "_format": "hh-sol-artifact-1",
  "contractName": "Leader",
  "sourceName": "src/backend/contracts/Leader.sol",
  "abi": [
    {
      "inputs": [],
      "stateMutability": "nonpayable",
      "type": "constructor"
    },
    {
      "anonymous": false,
      "inputs": [
        {
          "indexed": false,
          "internalType": "address",
          "name": "_owner",
          "type": "address"
        },
        {
          "components": [
            {
              "internalType": "string",
              "name": "name",
              "type": "string"
            },
            {
              "internalType": "uint256",
              "name": "id",
              "type": "uint256"
            },
            {
              "internalType": "address",
              "name": "addr",
              "type": "address"
            }
          ],
          "indexed": false,
          "internalType": "struct Leader.Contestants",
          "name": "_newContestant",
          "type": "tuple"
        }
      ],
      "name": "AdditionOfParticipant",
      "type": "event"
    },
    {
      "inputs": [
        {
          "internalType": "string",
          "name": "_name",
          "type": "string"
        },
        {
          "internalType": "address",
          "name": "_addr",
          "type": "address"
        }
      ],
      "name": "addParticipant",
      "outputs": [],
      "stateMutability": "nonpayable",
      "type": "function"
    },
    {
      "inputs": [
        {
          "internalType": "address",
          "name": "",
          "type": "address"
        }
      ],
      "name": "leaders",
      "outputs": [
        {
          "internalType": "string",
          "name": "name",
          "type": "string"
        },
        {
          "internalType": "uint256",
          "name": "id",
          "type": "uint256"
        },
        {
          "internalType": "address",
          "name": "addr",
          "type": "address"
        }
      ],
      "stateMutability": "view",
      "type": "function"
    },
    {
      "inputs": [
        {
          "internalType": "address",
          "name": "",
          "type": "address"
        }
      ],
      "name": "noOfLeaderVotes",
      "outputs": [
        {
          "internalType": "uint256",
          "name": "",
          "type": "uint256"
        }
      ],
      "stateMutability": "view",
      "type": "function"
    },
    {
      "inputs": [],
      "name": "noOfParticipants",
      "outputs": [
        {
          "internalType": "uint256",
          "name": "",
          "type": "uint256"
        }
      ],
      "stateMutability": "view",
      "type": "function"
    },
    {
      "inputs": [],
      "name": "owner",
      "outputs": [
        {
          "internalType": "address",
          "name": "",
          "type": "address"
        }
      ],
      "stateMutability": "view",
      "type": "function"
    },
    {
      "inputs": [
        {
          "internalType": "uint256",
          "name": "",
          "type": "uint256"
        }
      ],
      "name": "participants",
      "outputs": [
        {
          "internalType": "string",
          "name": "name",
          "type": "string"
        },
        {
          "internalType": "uint256",
          "name": "id",
          "type": "uint256"
        },
        {
          "internalType": "address",
          "name": "addr",
          "type": "address"
        }
      ],
      "stateMutability": "view",
      "type": "function"
    }
  ],
  "bytecode": "0x60a060405234801561001057600080fd5b503373ffffffffffffffffffffffffffffffffffffffff1660808173ffffffffffffffffffffffffffffffffffffffff16815250506000808190555060805161106d6100756000396000818161030f01528181610362015261067f015261106d6000f3fe608060405234801561001057600080fd5b50600436106100625760003560e01c8063087262961461006757806335c1d34914610085578063749ea598146100b75780638da5cb5b146100e9578063cbbe596814610107578063f5b5df4814610137575b600080fd5b61006f610153565b60405161007c919061070a565b60405180910390f35b61009f600480360381019061009a9190610765565b610159565b6040516100ae93929190610863565b60405180910390f35b6100d160048036038101906100cc91906108cd565b61023b565b6040516100e093929190610863565b60405180910390f35b6100f161030d565b6040516100fe91906108fa565b60405180910390f35b610121600480360381019061011c91906108cd565b610331565b60405161012e919061070a565b60405180910390f35b610151600480360381019061014c9190610a4a565b610349565b005b60005481565b6001818154811061016957600080fd5b906000526020600020906003020160009150905080600001805461018c90610ad5565b80601f01602080910402602001604051908101604052809291908181526020018280546101b890610ad5565b80156102055780601f106101da57610100808354040283529160200191610205565b820191906000526020600020905b8154815290600101906020018083116101e857829003601f168201915b5050505050908060010154908060020160009054906101000a900473ffffffffffffffffffffffffffffffffffffffff16905083565b600260205280600052604060002060009150905080600001805461025e90610ad5565b80601f016020809104026020016040519081016040528092919081815260200182805461028a90610ad5565b80156102d75780601f106102ac576101008083540402835291602001916102d7565b820191906000526020600020905b8154815290600101906020018083116102ba57829003601f168201915b5050505050908060010154908060020160009054906101000a900473ffffffffffffffffffffffffffffffffffffffff16905083565b7f000000000000000000000000000000000000000000000000000000000000000081565b60036020528060005260406000206000915090505481565b3373ffffffffffffffffffffffffffffffffffffffff167f000000000000000000000000000000000000000000000000000000000000000073ffffffffffffffffffffffffffffffffffffffff16146103a157600080fd5b8073ffffffffffffffffffffffffffffffffffffffff16600260008373ffffffffffffffffffffffffffffffffffffffff1673ffffffffffffffffffffffffffffffffffffffff16815260200190815260200160002060020160009054906101000a900473ffffffffffffffffffffffffffffffffffffffff1673ffffffffffffffffffffffffffffffffffffffff1603610471576040517f08c379a000000000000000000000000000000000000000000000000000000000815260040161046890610b52565b60405180910390fd5b6001604051806060016040528084815260200160018054905081526020018373ffffffffffffffffffffffffffffffffffffffff16815250908060018154018082558091505060019003906000526020600020906003020160009091909190915060008201518160000190816104e79190610d1e565b506020820151816001015560408201518160020160006101000a81548173ffffffffffffffffffffffffffffffffffffffff021916908373ffffffffffffffffffffffffffffffffffffffff16021790555050506000600360008373ffffffffffffffffffffffffffffffffffffffff1673ffffffffffffffffffffffffffffffffffffffff16815260200190815260200160002081905550604051806060016040528083815260200160005481526020018273ffffffffffffffffffffffffffffffffffffffff16815250600260008373ffffffffffffffffffffffffffffffffffffffff1673ffffffffffffffffffffffffffffffffffffffff16815260200190815260200160002060008201518160000190816106079190610d1e565b506020820151816001015560408201518160020160006101000a81548173ffffffffffffffffffffffffffffffffffffffff021916908373ffffffffffffffffffffffffffffffffffffffff1602179055509050507fe459765e636bddc4db7d17ebd9cab0a55ac10acc6ba3531bd45aaba9b70f6c4e7f00000000000000000000000000000000000000000000000000000000000000006001600054815481106106b4576106b3610df0565b5b90600052602060002090600302016040516106d0929190610fa4565b60405180910390a160016000546106e79190611003565b6000819055505050565b6000819050919050565b610704816106f1565b82525050565b600060208201905061071f60008301846106fb565b92915050565b6000604051905090565b600080fd5b600080fd5b610742816106f1565b811461074d57600080fd5b50565b60008135905061075f81610739565b92915050565b60006020828403121561077b5761077a61072f565b5b600061078984828501610750565b91505092915050565b600081519050919050565b600082825260208201905092915050565b60005b838110156107cc5780820151818401526020810190506107b1565b60008484015250505050565b6000601f19601f8301169050919050565b60006107f482610792565b6107fe818561079d565b935061080e8185602086016107ae565b610817816107d8565b840191505092915050565b600073ffffffffffffffffffffffffffffffffffffffff82169050919050565b600061084d82610822565b9050919050565b61085d81610842565b82525050565b6000606082019050818103600083015261087d81866107e9565b905061088c60208301856106fb565b6108996040830184610854565b949350505050565b6108aa81610842565b81146108b557600080fd5b50565b6000813590506108c7816108a1565b92915050565b6000602082840312156108e3576108e261072f565b5b60006108f1848285016108b8565b91505092915050565b600060208201905061090f6000830184610854565b92915050565b600080fd5b600080fd5b7f4e487b7100000000000000000000000000000000000000000000000000000000600052604160045260246000fd5b610957826107d8565b810181811067ffffffffffffffff821117156109765761097561091f565b5b80604052505050565b6000610989610725565b9050610995828261094e565b919050565b600067ffffffffffffffff8211156109b5576109b461091f565b5b6109be826107d8565b9050602081019050919050565b82818337600083830152505050565b60006109ed6109e88461099a565b61097f565b905082815260208101848484011115610a0957610a0861091a565b5b610a148482856109cb565b509392505050565b600082601f830112610a3157610a30610915565b5b8135610a418482602086016109da565b91505092915050565b60008060408385031215610a6157610a6061072f565b5b600083013567ffffffffffffffff811115610a7f57610a7e610734565b5b610a8b85828601610a1c565b9250506020610a9c858286016108b8565b9150509250929050565b7f4e487b7100000000000000000000000000000000000000000000000000000000600052602260045260246000fd5b60006002820490506001821680610aed57607f821691505b602082108103610b0057610aff610aa6565b5b50919050565b7f4f6e6c79206f6e65206775792063616e206164642068696d2f68657200000000600082015250565b6000610b3c601c8361079d565b9150610b4782610b06565b602082019050919050565b60006020820190508181036000830152610b6b81610b2f565b9050919050565b60008190508160005260206000209050919050565b60006020601f8301049050919050565b600082821b905092915050565b600060088302610bd47fffffffffffffffffffffffffffffffffffffffffffffffffffffffffffffffff82610b97565b610bde8683610b97565b95508019841693508086168417925050509392505050565b6000819050919050565b6000610c1b610c16610c11846106f1565b610bf6565b6106f1565b9050919050565b6000819050919050565b610c3583610c00565b610c49610c4182610c22565b848454610ba4565b825550505050565b600090565b610c5e610c51565b610c69818484610c2c565b505050565b5b81811015610c8d57610c82600082610c56565b600181019050610c6f565b5050565b601f821115610cd257610ca381610b72565b610cac84610b87565b81016020851015610cbb578190505b610ccf610cc785610b87565b830182610c6e565b50505b505050565b600082821c905092915050565b6000610cf560001984600802610cd7565b1980831691505092915050565b6000610d0e8383610ce4565b9150826002028217905092915050565b610d2782610792565b67ffffffffffffffff811115610d4057610d3f61091f565b5b610d4a8254610ad5565b610d55828285610c91565b600060209050601f831160018114610d885760008415610d76578287015190505b610d808582610d02565b865550610de8565b601f198416610d9686610b72565b60005b82811015610dbe57848901518255600182019150602085019450602081019050610d99565b86831015610ddb5784890151610dd7601f891682610ce4565b8355505b6001600288020188555050505b505050505050565b7f4e487b7100000000000000000000000000000000000000000000000000000000600052603260045260246000fd5b600082825260208201905092915050565b60008154610e3d81610ad5565b610e478186610e1f565b94506001821660008114610e625760018114610e7857610eab565b60ff198316865281151560200286019350610eab565b610e8185610b72565b60005b83811015610ea357815481890152600182019150602081019050610e84565b808801955050505b50505092915050565b60008160001c9050919050565b6000819050919050565b6000610ede610ed983610eb4565b610ec1565b9050919050565b610eee816106f1565b82525050565b600073ffffffffffffffffffffffffffffffffffffffff82169050919050565b6000610f27610f2283610eb4565b610ef4565b9050919050565b610f3781610842565b82525050565b60006060830160008084018583036000870152610f5a8382610e30565b92505060018401549050610f6d81610ecb565b610f7a6020870182610ee5565b5060028401549050610f8b81610f14565b610f986040870182610f2e565b50819250505092915050565b6000604082019050610fb96000830185610854565b8181036020830152610fcb8184610f3d565b90509392505050565b7f4e487b7100000000000000000000000000000000000000000000000000000000600052601160045260246000fd5b600061100e826106f1565b9150611019836106f1565b925082820190508082111561103157611030610fd4565b5b9291505056fea264697066735822122082184276e39fd89779b3ed16fd39125befdd37b79ebf42ce76f13a729834a04b64736f6c63430008110033",
  "linkReferences": {},
  "deployedLinkReferences": {}
}